{
	"data": {
		"bytecode": {
			"linkReferences": {},
			"object": "60806040523480156200001157600080fd5b5060405162000df338038062000df38339818101604052810190620000379190620000a4565b80600081116200007e576040517f08c379a00000000000000000000000000000000000000000000000000000000081526004016200007590620000fd565b60405180910390fd5b81600081905550505062000182565b6000815190506200009e8162000168565b92915050565b600060208284031215620000bd57620000bc6200013a565b5b6000620000cd848285016200008d565b91505092915050565b6000620000e5600e836200011f565b9150620000f2826200013f565b602082019050919050565b600060208201905081810360008301526200011881620000d6565b9050919050565b600082825260208201905092915050565b6000819050919050565b600080fd5b7f494e56414c49445f414d4f554e54000000000000000000000000000000000000600082015250565b620001738162000130565b81146200017f57600080fd5b50565b610c6180620001926000396000f3fe608060405234801561001057600080fd5b50600436106100b45760003560e01c8063b69ef8a811610071578063b69ef8a81461019d578063b6b55f25146101bb578063c3d9c4b4146101d7578063c86d6ae4146101f3578063de98645014610211578063f88e9fbf1461022d576100b4565b8063165c4a16146100b95780631b862027146100e95780632afcf480146101055780632e1a7d4d146101215780633ef5e4451461013d578063771602f71461016d575b600080fd5b6100d360048036038101906100ce9190610755565b61025d565b6040516100e0919061086d565b60405180910390f35b61010360048036038101906100fe9190610728565b6102fd565b005b61011f600480360381019061011a9190610728565b61045f565b005b61013b60048036038101906101369190610728565b610474565b005b61015760048036038101906101529190610755565b6104d2565b604051610164919061086d565b60405180910390f35b61018760048036038101906101829190610755565b610572565b604051610194919061086d565b60405180910390f35b6101a56105cd565b6040516101b2919061086d565b60405180910390f35b6101d560048036038101906101d09190610728565b6105d3565b005b6101f160048036038101906101ec9190610728565b6105e8565b005b6101fb6105fd565b604051610208919061086d565b60405180910390f35b61022b60048036038101906102269190610728565b610603565b005b61024760048036038101906102429190610755565b610673565b604051610254919061086d565b60405180910390f35b600082600081116102a3576040517f08c379a000000000000000000000000000000000000000000000000000000000815260040161029a9061084d565b60405180910390fd5b82600081116102e7576040517f08c379a00000000000000000000000000000000000000000000000000000000081526004016102de9061084d565b60405180910390fd5b83856102f39190610a91565b9250505092915050565b8060008111610341576040517f08c379a00000000000000000000000000000000000000000000000000000000081526004016103389061084d565b60405180910390fd5b8160005481811015610388576040517f08c379a000000000000000000000000000000000000000000000000000000000815260040161037f9061082d565b60405180910390fd5b600060059050600060019050600060079050600082826103a89190610a91565b836064866103b691906108ef565b6103c091906108ef565b60016103cc9190610899565b6103d69190610973565b886103e19190610a91565b90506103ef600054896104d2565b60008190555060008111610438576040517f08c379a000000000000000000000000000000000000000000000000000000000815260040161042f9061080d565b60405180910390fd5b61044f600154898361044a9190610899565b610572565b6001819055505050505050505050565b61046b6000548261025d565b60008190555050565b80600054818110156104bb576040517f08c379a00000000000000000000000000000000000000000000000000000000081526004016104b29061082d565b60405180910390fd5b6104c7600054846104d2565b600081905550505050565b60008260008111610518576040517f08c379a000000000000000000000000000000000000000000000000000000000815260040161050f9061084d565b60405180910390fd5b826000811161055c576040517f08c379a00000000000000000000000000000000000000000000000000000000081526004016105539061084d565b60405180910390fd5b83856105689190610aeb565b9250505092915050565b600081600081116105b8576040517f08c379a00000000000000000000000000000000000000000000000000000000081526004016105af9061084d565b60405180910390fd5b82846105c49190610899565b91505092915050565b60005481565b6105df60005482610572565b60008190555050565b6105f460005482610673565b60008190555050565b60015481565b806001548181101561064a576040517f08c379a00000000000000000000000000000000000000000000000000000000081526004016106419061082d565b60405180910390fd5b610656600154846104d2565b60018190555061066860005484610572565b600081905550505050565b600082600081116106b9576040517f08c379a00000000000000000000000000000000000000000000000000000000081526004016106b09061084d565b60405180910390fd5b82600081116106fd576040517f08c379a00000000000000000000000000000000000000000000000000000000081526004016106f49061084d565b60405180910390fd5b838561070991906108ef565b9250505092915050565b60008135905061072281610c14565b92915050565b60006020828403121561073e5761073d610b87565b5b600061074c84828501610713565b91505092915050565b6000806040838503121561076c5761076b610b87565b5b600061077a85828601610713565b925050602061078b85828601610713565b9150509250929050565b60006107a2601083610888565b91506107ad82610b99565b602082019050919050565b60006107c5601483610888565b91506107d082610bc2565b602082019050919050565b60006107e8600e83610888565b91506107f382610beb565b602082019050919050565b61080781610b1f565b82525050565b6000602082019050818103600083015261082681610795565b9050919050565b60006020820190508181036000830152610846816107b8565b9050919050565b60006020820190508181036000830152610866816107db565b9050919050565b600060208201905061088260008301846107fe565b92915050565b600082825260208201905092915050565b60006108a482610b1f565b91506108af83610b1f565b9250827fffffffffffffffffffffffffffffffffffffffffffffffffffffffffffffffff038211156108e4576108e3610b29565b5b828201905092915050565b60006108fa82610b1f565b915061090583610b1f565b92508261091557610914610b58565b5b828204905092915050565b6000808291508390505b600185111561096a5780860481111561094657610945610b29565b5b60018516156109555780820291505b808102905061096385610b8c565b945061092a565b94509492505050565b600061097e82610b1f565b915061098983610b1f565b92506109b67fffffffffffffffffffffffffffffffffffffffffffffffffffffffffffffffff84846109be565b905092915050565b6000826109ce5760019050610a8a565b816109dc5760009050610a8a565b81600181146109f257600281146109fc57610a2b565b6001915050610a8a565b60ff841115610a0e57610a0d610b29565b5b8360020a915084821115610a2557610a24610b29565b5b50610a8a565b5060208310610133831016604e8410600b8410161715610a605782820a905083811115610a5b57610a5a610b29565b5b610a8a565b610a6d8484846001610920565b92509050818404811115610a8457610a83610b29565b5b81810290505b9392505050565b6000610a9c82610b1f565b9150610aa783610b1f565b9250817fffffffffffffffffffffffffffffffffffffffffffffffffffffffffffffffff0483118215151615610ae057610adf610b29565b5b828202905092915050565b6000610af682610b1f565b9150610b0183610b1f565b925082821015610b1457610b13610b29565b5b828203905092915050565b6000819050919050565b7f4e487b7100000000000000000000000000000000000000000000000000000000600052601160045260246000fd5b7f4e487b7100000000000000000000000000000000000000000000000000000000600052601260045260246000fd5b600080fd5b60008160011c9050919050565b7f494e56414c49445f494e54455245535400000000000000000000000000000000600082015250565b7f494e53554646494349454e545f42414c414e4345000000000000000000000000600082015250565b7f494e56414c49445f414d4f554e54000000000000000000000000000000000000600082015250565b610c1d81610b1f565b8114610c2857600080fd5b5056fea26469706673582212209ef5c2bd248b071d58e89aff54e47617f56c1d5f8f92234b5e9007d5261cf4d764736f6c63430008070033",
			"opcodes": "PUSH1 0x80 PUSH1 0x40 MSTORE CALLVALUE DUP1 ISZERO PUSH3 0x11 JUMPI PUSH1 0x0 DUP1 REVERT JUMPDEST POP PUSH1 0x40 MLOAD PUSH3 0xDF3 CODESIZE SUB DUP1 PUSH3 0xDF3 DUP4 CODECOPY DUP2 DUP2 ADD PUSH1 0x40 MSTORE DUP2 ADD SWAP1 PUSH3 0x37 SWAP2 SWAP1 PUSH3 0xA4 JUMP JUMPDEST DUP1 PUSH1 0x0 DUP2 GT PUSH3 0x7E JUMPI PUSH1 0x40 MLOAD PUSH32 0x8C379A000000000000000000000000000000000000000000000000000000000 DUP2 MSTORE PUSH1 0x4 ADD PUSH3 0x75 SWAP1 PUSH3 0xFD JUMP JUMPDEST PUSH1 0x40 MLOAD DUP1 SWAP2 SUB SWAP1 REVERT JUMPDEST DUP2 PUSH1 0x0 DUP2 SWAP1 SSTORE POP POP POP PUSH3 0x182 JUMP JUMPDEST PUSH1 0x0 DUP2 MLOAD SWAP1 POP PUSH3 0x9E DUP2 PUSH3 0x168 JUMP JUMPDEST SWAP3 SWAP2 POP POP JUMP JUMPDEST PUSH1 0x0 PUSH1 0x20 DUP3 DUP5 SUB SLT ISZERO PUSH3 0xBD JUMPI PUSH3 0xBC PUSH3 0x13A JUMP JUMPDEST JUMPDEST PUSH1 0x0 PUSH3 0xCD DUP5 DUP3 DUP6 ADD PUSH3 0x8D JUMP JUMPDEST SWAP2 POP POP SWAP3 SWAP2 POP POP JUMP JUMPDEST PUSH1 0x0 PUSH3 0xE5 PUSH1 0xE DUP4 PUSH3 0x11F JUMP JUMPDEST SWAP2 POP PUSH3 0xF2 DUP3 PUSH3 0x13F JUMP JUMPDEST PUSH1 0x20 DUP3 ADD SWAP1 POP SWAP2 SWAP1 POP JUMP JUMPDEST PUSH1 0x0 PUSH1 0x20 DUP3 ADD SWAP1 POP DUP2 DUP2 SUB PUSH1 0x0 DUP4 ADD MSTORE PUSH3 0x118 DUP2 PUSH3 0xD6 JUMP JUMPDEST SWAP1 POP SWAP2 SWAP1 POP JUMP JUMPDEST PUSH1 0x0 DUP3 DUP3 MSTORE PUSH1 0x20 DUP3 ADD SWAP1 POP SWAP3 SWAP2 POP POP JUMP JUMPDEST PUSH1 0x0 DUP2 SWAP1 POP SWAP2 SWAP1 POP JUMP JUMPDEST PUSH1 0x0 DUP1 REVERT JUMPDEST PUSH32 0x494E56414C49445F414D4F554E54000000000000000000000000000000000000 PUSH1 0x0 DUP3 ADD MSTORE POP JUMP JUMPDEST PUSH3 0x173 DUP2 PUSH3 0x130 JUMP JUMPDEST DUP2 EQ PUSH3 0x17F JUMPI PUSH1 0x0 DUP1 REVERT JUMPDEST POP JUMP JUMPDEST PUSH2 0xC61 DUP1 PUSH3 0x192 PUSH1 0x0 CODECOPY PUSH1 0x0 RETURN INVALID PUSH1 0x80 PUSH1 0x40 MSTORE CALLVALUE DUP1 ISZERO PUSH2 0x10 JUMPI PUSH1 0x0 DUP1 REVERT JUMPDEST POP PUSH1 0x4 CALLDATASIZE LT PUSH2 0xB4 JUMPI PUSH1 0x0 CALLDATALOAD PUSH1 0xE0 SHR DUP1 PUSH4 0xB69EF8A8 GT PUSH2 0x71 JUMPI DUP1 PUSH4 0xB69EF8A8 EQ PUSH2 0x19D JUMPI DUP1 PUSH4 0xB6B55F25 EQ PUSH2 0x1BB JUMPI DUP1 PUSH4 0xC3D9C4B4 EQ PUSH2 0x1D7 JUMPI DUP1 PUSH4 0xC86D6AE4 EQ PUSH2 0x1F3 JUMPI DUP1 PUSH4 0xDE986450 EQ PUSH2 0x211 JUMPI DUP1 PUSH4 0xF88E9FBF EQ PUSH2 0x22D JUMPI PUSH2 0xB4 JUMP JUMPDEST DUP1 PUSH4 0x165C4A16 EQ PUSH2 0xB9 JUMPI DUP1 PUSH4 0x1B862027 EQ PUSH2 0xE9 JUMPI DUP1 PUSH4 0x2AFCF480 EQ PUSH2 0x105 JUMPI DUP1 PUSH4 0x2E1A7D4D EQ PUSH2 0x121 JUMPI DUP1 PUSH4 0x3EF5E445 EQ PUSH2 0x13D JUMPI DUP1 PUSH4 0x771602F7 EQ PUSH2 0x16D JUMPI JUMPDEST PUSH1 0x0 DUP1 REVERT JUMPDEST PUSH2 0xD3 PUSH1 0x4 DUP1 CALLDATASIZE SUB DUP2 ADD SWAP1 PUSH2 0xCE SWAP2 SWAP1 PUSH2 0x755 JUMP JUMPDEST PUSH2 0x25D JUMP JUMPDEST PUSH1 0x40 MLOAD PUSH2 0xE0 SWAP2 SWAP1 PUSH2 0x86D JUMP JUMPDEST PUSH1 0x40 MLOAD DUP1 SWAP2 SUB SWAP1 RETURN JUMPDEST PUSH2 0x103 PUSH1 0x4 DUP1 CALLDATASIZE SUB DUP2 ADD SWAP1 PUSH2 0xFE SWAP2 SWAP1 PUSH2 0x728 JUMP JUMPDEST PUSH2 0x2FD JUMP JUMPDEST STOP JUMPDEST PUSH2 0x11F PUSH1 0x4 DUP1 CALLDATASIZE SUB DUP2 ADD SWAP1 PUSH2 0x11A SWAP2 SWAP1 PUSH2 0x728 JUMP JUMPDEST PUSH2 0x45F JUMP JUMPDEST STOP JUMPDEST PUSH2 0x13B PUSH1 0x4 DUP1 CALLDATASIZE SUB DUP2 ADD SWAP1 PUSH2 0x136 SWAP2 SWAP1 PUSH2 0x728 JUMP JUMPDEST PUSH2 0x474 JUMP JUMPDEST STOP JUMPDEST PUSH2 0x157 PUSH1 0x4 DUP1 CALLDATASIZE SUB DUP2 ADD SWAP1 PUSH2 0x152 SWAP2 SWAP1 PUSH2 0x755 JUMP JUMPDEST PUSH2 0x4D2 JUMP JUMPDEST PUSH1 0x40 MLOAD PUSH2 0x164 SWAP2 SWAP1 PUSH2 0x86D JUMP JUMPDEST PUSH1 0x40 MLOAD DUP1 SWAP2 SUB SWAP1 RETURN JUMPDEST PUSH2 0x187 PUSH1 0x4 DUP1 CALLDATASIZE SUB DUP2 ADD SWAP1 PUSH2 0x182 SWAP2 SWAP1 PUSH2 0x755 JUMP JUMPDEST PUSH2 0x572 JUMP JUMPDEST PUSH1 0x40 MLOAD PUSH2 0x194 SWAP2 SWAP1 PUSH2 0x86D JUMP JUMPDEST PUSH1 0x40 MLOAD DUP1 SWAP2 SUB SWAP1 RETURN JUMPDEST PUSH2 0x1A5 PUSH2 0x5CD JUMP JUMPDEST PUSH1 0x40 MLOAD PUSH2 0x1B2 SWAP2 SWAP1 PUSH2 0x86D JUMP JUMPDEST PUSH1 0x40 MLOAD DUP1 SWAP2 SUB SWAP1 RETURN JUMPDEST PUSH2 0x1D5 PUSH1 0x4 DUP1 CALLDATASIZE SUB DUP2 ADD SWAP1 PUSH2 0x1D0 SWAP2 SWAP1 PUSH2 0x728 JUMP JUMPDEST PUSH2 0x5D3 JUMP JUMPDEST STOP JUMPDEST PUSH2 0x1F1 PUSH1 0x4 DUP1 CALLDATASIZE SUB DUP2 ADD SWAP1 PUSH2 0x1EC SWAP2 SWAP1 PUSH2 0x728 JUMP JUMPDEST PUSH2 0x5E8 JUMP JUMPDEST STOP JUMPDEST PUSH2 0x1FB PUSH2 0x5FD JUMP JUMPDEST PUSH1 0x40 MLOAD PUSH2 0x208 SWAP2 SWAP1 PUSH2 0x86D JUMP JUMPDEST PUSH1 0x40 MLOAD DUP1 SWAP2 SUB SWAP1 RETURN JUMPDEST PUSH2 0x22B PUSH1 0x4 DUP1 CALLDATASIZE SUB DUP2 ADD SWAP1 PUSH2 0x226 SWAP2 SWAP1 PUSH2 0x728 JUMP JUMPDEST PUSH2 0x603 JUMP JUMPDEST STOP JUMPDEST PUSH2 0x247 PUSH1 0x4 DUP1 CALLDATASIZE SUB DUP2 ADD SWAP1 PUSH2 0x242 SWAP2 SWAP1 PUSH2 0x755 JUMP JUMPDEST PUSH2 0x673 JUMP JUMPDEST PUSH1 0x40 MLOAD PUSH2 0x254 SWAP2 SWAP1 PUSH2 0x86D JUMP JUMPDEST PUSH1 0x40 MLOAD DUP1 SWAP2 SUB SWAP1 RETURN JUMPDEST PUSH1 0x0 DUP3 PUSH1 0x0 DUP2 GT PUSH2 0x2A3 JUMPI PUSH1 0x40 MLOAD PUSH32 0x8C379A000000000000000000000000000000000000000000000000000000000 DUP2 MSTORE PUSH1 0x4 ADD PUSH2 0x29A SWAP1 PUSH2 0x84D JUMP JUMPDEST PUSH1 0x40 MLOAD DUP1 SWAP2 SUB SWAP1 REVERT JUMPDEST DUP3 PUSH1 0x0 DUP2 GT PUSH2 0x2E7 JUMPI PUSH1 0x40 MLOAD PUSH32 0x8C379A000000000000000000000000000000000000000000000000000000000 DUP2 MSTORE PUSH1 0x4 ADD PUSH2 0x2DE SWAP1 PUSH2 0x84D JUMP JUMPDEST PUSH1 0x40 MLOAD DUP1 SWAP2 SUB SWAP1 REVERT JUMPDEST DUP4 DUP6 PUSH2 0x2F3 SWAP2 SWAP1 PUSH2 0xA91 JUMP JUMPDEST SWAP3 POP POP POP SWAP3 SWAP2 POP POP JUMP JUMPDEST DUP1 PUSH1 0x0 DUP2 GT PUSH2 0x341 JUMPI PUSH1 0x40 MLOAD PUSH32 0x8C379A000000000000000000000000000000000000000000000000000000000 DUP2 MSTORE PUSH1 0x4 ADD PUSH2 0x338 SWAP1 PUSH2 0x84D JUMP JUMPDEST PUSH1 0x40 MLOAD DUP1 SWAP2 SUB SWAP1 REVERT JUMPDEST DUP2 PUSH1 0x0 SLOAD DUP2 DUP2 LT ISZERO PUSH2 0x388 JUMPI PUSH1 0x40 MLOAD PUSH32 0x8C379A000000000000000000000000000000000000000000000000000000000 DUP2 MSTORE PUSH1 0x4 ADD PUSH2 0x37F SWAP1 PUSH2 0x82D JUMP JUMPDEST PUSH1 0x40 MLOAD DUP1 SWAP2 SUB SWAP1 REVERT JUMPDEST PUSH1 0x0 PUSH1 0x5 SWAP1 POP PUSH1 0x0 PUSH1 0x1 SWAP1 POP PUSH1 0x0 PUSH1 0x7 SWAP1 POP PUSH1 0x0 DUP3 DUP3 PUSH2 0x3A8 SWAP2 SWAP1 PUSH2 0xA91 JUMP JUMPDEST DUP4 PUSH1 0x64 DUP7 PUSH2 0x3B6 SWAP2 SWAP1 PUSH2 0x8EF JUMP JUMPDEST PUSH2 0x3C0 SWAP2 SWAP1 PUSH2 0x8EF JUMP JUMPDEST PUSH1 0x1 PUSH2 0x3CC SWAP2 SWAP1 PUSH2 0x899 JUMP JUMPDEST PUSH2 0x3D6 SWAP2 SWAP1 PUSH2 0x973 JUMP JUMPDEST DUP9 PUSH2 0x3E1 SWAP2 SWAP1 PUSH2 0xA91 JUMP JUMPDEST SWAP1 POP PUSH2 0x3EF PUSH1 0x0 SLOAD DUP10 PUSH2 0x4D2 JUMP JUMPDEST PUSH1 0x0 DUP2 SWAP1 SSTORE POP PUSH1 0x0 DUP2 GT PUSH2 0x438 JUMPI PUSH1 0x40 MLOAD PUSH32 0x8C379A000000000000000000000000000000000000000000000000000000000 DUP2 MSTORE PUSH1 0x4 ADD PUSH2 0x42F SWAP1 PUSH2 0x80D JUMP JUMPDEST PUSH1 0x40 MLOAD DUP1 SWAP2 SUB SWAP1 REVERT JUMPDEST PUSH2 0x44F PUSH1 0x1 SLOAD DUP10 DUP4 PUSH2 0x44A SWAP2 SWAP1 PUSH2 0x899 JUMP JUMPDEST PUSH2 0x572 JUMP JUMPDEST PUSH1 0x1 DUP2 SWAP1 SSTORE POP POP POP POP POP POP POP POP POP JUMP JUMPDEST PUSH2 0x46B PUSH1 0x0 SLOAD DUP3 PUSH2 0x25D JUMP JUMPDEST PUSH1 0x0 DUP2 SWAP1 SSTORE POP POP JUMP JUMPDEST DUP1 PUSH1 0x0 SLOAD DUP2 DUP2 LT ISZERO PUSH2 0x4BB JUMPI PUSH1 0x40 MLOAD PUSH32 0x8C379A000000000000000000000000000000000000000000000000000000000 DUP2 MSTORE PUSH1 0x4 ADD PUSH2 0x4B2 SWAP1 PUSH2 0x82D JUMP JUMPDEST PUSH1 0x40 MLOAD DUP1 SWAP2 SUB SWAP1 REVERT JUMPDEST PUSH2 0x4C7 PUSH1 0x0 SLOAD DUP5 PUSH2 0x4D2 JUMP JUMPDEST PUSH1 0x0 DUP2 SWAP1 SSTORE POP POP POP POP JUMP JUMPDEST PUSH1 0x0 DUP3 PUSH1 0x0 DUP2 GT PUSH2 0x518 JUMPI PUSH1 0x40 MLOAD PUSH32 0x8C379A000000000000000000000000000000000000000000000000000000000 DUP2 MSTORE PUSH1 0x4 ADD PUSH2 0x50F SWAP1 PUSH2 0x84D JUMP JUMPDEST PUSH1 0x40 MLOAD DUP1 SWAP2 SUB SWAP1 REVERT JUMPDEST DUP3 PUSH1 0x0 DUP2 GT PUSH2 0x55C JUMPI PUSH1 0x40 MLOAD PUSH32 0x8C379A000000000000000000000000000000000000000000000000000000000 DUP2 MSTORE PUSH1 0x4 ADD PUSH2 0x553 SWAP1 PUSH2 0x84D JUMP JUMPDEST PUSH1 0x40 MLOAD DUP1 SWAP2 SUB SWAP1 REVERT JUMPDEST DUP4 DUP6 PUSH2 0x568 SWAP2 SWAP1 PUSH2 0xAEB JUMP JUMPDEST SWAP3 POP POP POP SWAP3 SWAP2 POP POP JUMP JUMPDEST PUSH1 0x0 DUP2 PUSH1 0x0 DUP2 GT PUSH2 0x5B8 JUMPI PUSH1 0x40 MLOAD PUSH32 0x8C379A000000000000000000000000000000000000000000000000000000000 DUP2 MSTORE PUSH1 0x4 ADD PUSH2 0x5AF SWAP1 PUSH2 0x84D JUMP JUMPDEST PUSH1 0x40 MLOAD DUP1 SWAP2 SUB SWAP1 REVERT JUMPDEST DUP3 DUP5 PUSH2 0x5C4 SWAP2 SWAP1 PUSH2 0x899 JUMP JUMPDEST SWAP2 POP POP SWAP3 SWAP2 POP POP JUMP JUMPDEST PUSH1 0x0 SLOAD DUP2 JUMP JUMPDEST PUSH2 0x5DF PUSH1 0x0 SLOAD DUP3 PUSH2 0x572 JUMP JUMPDEST PUSH1 0x0 DUP2 SWAP1 SSTORE POP POP JUMP JUMPDEST PUSH2 0x5F4 PUSH1 0x0 SLOAD DUP3 PUSH2 0x673 JUMP JUMPDEST PUSH1 0x0 DUP2 SWAP1 SSTORE POP POP JUMP JUMPDEST PUSH1 0x1 SLOAD DUP2 JUMP JUMPDEST DUP1 PUSH1 0x1 SLOAD DUP2 DUP2 LT ISZERO PUSH2 0x64A JUMPI PUSH1 0x40 MLOAD PUSH32 0x8C379A000000000000000000000000000000000000000000000000000000000 DUP2 MSTORE PUSH1 0x4 ADD PUSH2 0x641 SWAP1 PUSH2 0x82D JUMP JUMPDEST PUSH1 0x40 MLOAD DUP1 SWAP2 SUB SWAP1 REVERT JUMPDEST PUSH2 0x656 PUSH1 0x1 SLOAD DUP5 PUSH2 0x4D2 JUMP JUMPDEST PUSH1 0x1 DUP2 SWAP1 SSTORE POP PUSH2 0x668 PUSH1 0x0 SLOAD DUP5 PUSH2 0x572 JUMP JUMPDEST PUSH1 0x0 DUP2 SWAP1 SSTORE POP POP POP POP JUMP JUMPDEST PUSH1 0x0 DUP3 PUSH1 0x0 DUP2 GT PUSH2 0x6B9 JUMPI PUSH1 0x40 MLOAD PUSH32 0x8C379A000000000000000000000000000000000000000000000000000000000 DUP2 MSTORE PUSH1 0x4 ADD PUSH2 0x6B0 SWAP1 PUSH2 0x84D JUMP JUMPDEST PUSH1 0x40 MLOAD DUP1 SWAP2 SUB SWAP1 REVERT JUMPDEST DUP3 PUSH1 0x0 DUP2 GT PUSH2 0x6FD JUMPI PUSH1 0x40 MLOAD PUSH32 0x8C379A000000000000000000000000000000000000000000000000000000000 DUP2 MSTORE PUSH1 0x4 ADD PUSH2 0x6F4 SWAP1 PUSH2 0x84D JUMP JUMPDEST PUSH1 0x40 MLOAD DUP1 SWAP2 SUB SWAP1 REVERT JUMPDEST DUP4 DUP6 PUSH2 0x709 SWAP2 SWAP1 PUSH2 0x8EF JUMP JUMPDEST SWAP3 POP POP POP SWAP3 SWAP2 POP POP JUMP JUMPDEST PUSH1 0x0 DUP2 CALLDATALOAD SWAP1 POP PUSH2 0x722 DUP2 PUSH2 0xC14 JUMP JUMPDEST SWAP3 SWAP2 POP POP JUMP JUMPDEST PUSH1 0x0 PUSH1 0x20 DUP3 DUP5 SUB SLT ISZERO PUSH2 0x73E JUMPI PUSH2 0x73D PUSH2 0xB87 JUMP JUMPDEST JUMPDEST PUSH1 0x0 PUSH2 0x74C DUP5 DUP3 DUP6 ADD PUSH2 0x713 JUMP JUMPDEST SWAP2 POP POP SWAP3 SWAP2 POP POP JUMP JUMPDEST PUSH1 0x0 DUP1 PUSH1 0x40 DUP4 DUP6 SUB SLT ISZERO PUSH2 0x76C JUMPI PUSH2 0x76B PUSH2 0xB87 JUMP JUMPDEST JUMPDEST PUSH1 0x0 PUSH2 0x77A DUP6 DUP3 DUP7 ADD PUSH2 0x713 JUMP JUMPDEST SWAP3 POP POP PUSH1 0x20 PUSH2 0x78B DUP6 DUP3 DUP7 ADD PUSH2 0x713 JUMP JUMPDEST SWAP2 POP POP SWAP3 POP SWAP3 SWAP1 POP JUMP JUMPDEST PUSH1 0x0 PUSH2 0x7A2 PUSH1 0x10 DUP4 PUSH2 0x888 JUMP JUMPDEST SWAP2 POP PUSH2 0x7AD DUP3 PUSH2 0xB99 JUMP JUMPDEST PUSH1 0x20 DUP3 ADD SWAP1 POP SWAP2 SWAP1 POP JUMP JUMPDEST PUSH1 0x0 PUSH2 0x7C5 PUSH1 0x14 DUP4 PUSH2 0x888 JUMP JUMPDEST SWAP2 POP PUSH2 0x7D0 DUP3 PUSH2 0xBC2 JUMP JUMPDEST PUSH1 0x20 DUP3 ADD SWAP1 POP SWAP2 SWAP1 POP JUMP JUMPDEST PUSH1 0x0 PUSH2 0x7E8 PUSH1 0xE DUP4 PUSH2 0x888 JUMP JUMPDEST SWAP2 POP PUSH2 0x7F3 DUP3 PUSH2 0xBEB JUMP JUMPDEST PUSH1 0x20 DUP3 ADD SWAP1 POP SWAP2 SWAP1 POP JUMP JUMPDEST PUSH2 0x807 DUP2 PUSH2 0xB1F JUMP JUMPDEST DUP3 MSTORE POP POP JUMP JUMPDEST PUSH1 0x0 PUSH1 0x20 DUP3 ADD SWAP1 POP DUP2 DUP2 SUB PUSH1 0x0 DUP4 ADD MSTORE PUSH2 0x826 DUP2 PUSH2 0x795 JUMP JUMPDEST SWAP1 POP SWAP2 SWAP1 POP JUMP JUMPDEST PUSH1 0x0 PUSH1 0x20 DUP3 ADD SWAP1 POP DUP2 DUP2 SUB PUSH1 0x0 DUP4 ADD MSTORE PUSH2 0x846 DUP2 PUSH2 0x7B8 JUMP JUMPDEST SWAP1 POP SWAP2 SWAP1 POP JUMP JUMPDEST PUSH1 0x0 PUSH1 0x20 DUP3 ADD SWAP1 POP DUP2 DUP2 SUB PUSH1 0x0 DUP4 ADD MSTORE PUSH2 0x866 DUP2 PUSH2 0x7DB JUMP JUMPDEST SWAP1 POP SWAP2 SWAP1 POP JUMP JUMPDEST PUSH1 0x0 PUSH1 0x20 DUP3 ADD SWAP1 POP PUSH2 0x882 PUSH1 0x0 DUP4 ADD DUP5 PUSH2 0x7FE JUMP JUMPDEST SWAP3 SWAP2 POP POP JUMP JUMPDEST PUSH1 0x0 DUP3 DUP3 MSTORE PUSH1 0x20 DUP3 ADD SWAP1 POP SWAP3 SWAP2 POP POP JUMP JUMPDEST PUSH1 0x0 PUSH2 0x8A4 DUP3 PUSH2 0xB1F JUMP JUMPDEST SWAP2 POP PUSH2 0x8AF DUP4 PUSH2 0xB1F JUMP JUMPDEST SWAP3 POP DUP3 PUSH32 0xFFFFFFFFFFFFFFFFFFFFFFFFFFFFFFFFFFFFFFFFFFFFFFFFFFFFFFFFFFFFFFFF SUB DUP3 GT ISZERO PUSH2 0x8E4 JUMPI PUSH2 0x8E3 PUSH2 0xB29 JUMP JUMPDEST JUMPDEST DUP3 DUP3 ADD SWAP1 POP SWAP3 SWAP2 POP POP JUMP JUMPDEST PUSH1 0x0 PUSH2 0x8FA DUP3 PUSH2 0xB1F JUMP JUMPDEST SWAP2 POP PUSH2 0x905 DUP4 PUSH2 0xB1F JUMP JUMPDEST SWAP3 POP DUP3 PUSH2 0x915 JUMPI PUSH2 0x914 PUSH2 0xB58 JUMP JUMPDEST JUMPDEST DUP3 DUP3 DIV SWAP1 POP SWAP3 SWAP2 POP POP JUMP JUMPDEST PUSH1 0x0 DUP1 DUP3 SWAP2 POP DUP4 SWAP1 POP JUMPDEST PUSH1 0x1 DUP6 GT ISZERO PUSH2 0x96A JUMPI DUP1 DUP7 DIV DUP2 GT ISZERO PUSH2 0x946 JUMPI PUSH2 0x945 PUSH2 0xB29 JUMP JUMPDEST JUMPDEST PUSH1 0x1 DUP6 AND ISZERO PUSH2 0x955 JUMPI DUP1 DUP3 MUL SWAP2 POP JUMPDEST DUP1 DUP2 MUL SWAP1 POP PUSH2 0x963 DUP6 PUSH2 0xB8C JUMP JUMPDEST SWAP5 POP PUSH2 0x92A JUMP JUMPDEST SWAP5 POP SWAP5 SWAP3 POP POP POP JUMP JUMPDEST PUSH1 0x0 PUSH2 0x97E DUP3 PUSH2 0xB1F JUMP JUMPDEST SWAP2 POP PUSH2 0x989 DUP4 PUSH2 0xB1F JUMP JUMPDEST SWAP3 POP PUSH2 0x9B6 PUSH32 0xFFFFFFFFFFFFFFFFFFFFFFFFFFFFFFFFFFFFFFFFFFFFFFFFFFFFFFFFFFFFFFFF DUP5 DUP5 PUSH2 0x9BE JUMP JUMPDEST SWAP1 POP SWAP3 SWAP2 POP POP JUMP JUMPDEST PUSH1 0x0 DUP3 PUSH2 0x9CE JUMPI PUSH1 0x1 SWAP1 POP PUSH2 0xA8A JUMP JUMPDEST DUP2 PUSH2 0x9DC JUMPI PUSH1 0x0 SWAP1 POP PUSH2 0xA8A JUMP JUMPDEST DUP2 PUSH1 0x1 DUP2 EQ PUSH2 0x9F2 JUMPI PUSH1 0x2 DUP2 EQ PUSH2 0x9FC JUMPI PUSH2 0xA2B JUMP JUMPDEST PUSH1 0x1 SWAP2 POP POP PUSH2 0xA8A JUMP JUMPDEST PUSH1 0xFF DUP5 GT ISZERO PUSH2 0xA0E JUMPI PUSH2 0xA0D PUSH2 0xB29 JUMP JUMPDEST JUMPDEST DUP4 PUSH1 0x2 EXP SWAP2 POP DUP5 DUP3 GT ISZERO PUSH2 0xA25 JUMPI PUSH2 0xA24 PUSH2 0xB29 JUMP JUMPDEST JUMPDEST POP PUSH2 0xA8A JUMP JUMPDEST POP PUSH1 0x20 DUP4 LT PUSH2 0x133 DUP4 LT AND PUSH1 0x4E DUP5 LT PUSH1 0xB DUP5 LT AND OR ISZERO PUSH2 0xA60 JUMPI DUP3 DUP3 EXP SWAP1 POP DUP4 DUP2 GT ISZERO PUSH2 0xA5B JUMPI PUSH2 0xA5A PUSH2 0xB29 JUMP JUMPDEST JUMPDEST PUSH2 0xA8A JUMP JUMPDEST PUSH2 0xA6D DUP5 DUP5 DUP5 PUSH1 0x1 PUSH2 0x920 JUMP JUMPDEST SWAP3 POP SWAP1 POP DUP2 DUP5 DIV DUP2 GT ISZERO PUSH2 0xA84 JUMPI PUSH2 0xA83 PUSH2 0xB29 JUMP JUMPDEST JUMPDEST DUP2 DUP2 MUL SWAP1 POP JUMPDEST SWAP4 SWAP3 POP POP POP JUMP JUMPDEST PUSH1 0x0 PUSH2 0xA9C DUP3 PUSH2 0xB1F JUMP JUMPDEST SWAP2 POP PUSH2 0xAA7 DUP4 PUSH2 0xB1F JUMP JUMPDEST SWAP3 POP DUP2 PUSH32 0xFFFFFFFFFFFFFFFFFFFFFFFFFFFFFFFFFFFFFFFFFFFFFFFFFFFFFFFFFFFFFFFF DIV DUP4 GT DUP3 ISZERO ISZERO AND ISZERO PUSH2 0xAE0 JUMPI PUSH2 0xADF PUSH2 0xB29 JUMP JUMPDEST JUMPDEST DUP3 DUP3 MUL SWAP1 POP SWAP3 SWAP2 POP POP JUMP JUMPDEST PUSH1 0x0 PUSH2 0xAF6 DUP3 PUSH2 0xB1F JUMP JUMPDEST SWAP2 POP PUSH2 0xB01 DUP4 PUSH2 0xB1F JUMP JUMPDEST SWAP3 POP DUP3 DUP3 LT ISZERO PUSH2 0xB14 JUMPI PUSH2 0xB13 PUSH2 0xB29 JUMP JUMPDEST JUMPDEST DUP3 DUP3 SUB SWAP1 POP SWAP3 SWAP2 POP POP JUMP JUMPDEST PUSH1 0x0 DUP2 SWAP1 POP SWAP2 SWAP1 POP JUMP JUMPDEST PUSH32 0x4E487B7100000000000000000000000000000000000000000000000000000000 PUSH1 0x0 MSTORE PUSH1 0x11 PUSH1 0x4 MSTORE PUSH1 0x24 PUSH1 0x0 REVERT JUMPDEST PUSH32 0x4E487B7100000000000000000000000000000000000000000000000000000000 PUSH1 0x0 MSTORE PUSH1 0x12 PUSH1 0x4 MSTORE PUSH1 0x24 PUSH1 0x0 REVERT JUMPDEST PUSH1 0x0 DUP1 REVERT JUMPDEST PUSH1 0x0 DUP2 PUSH1 0x1 SHR SWAP1 POP SWAP2 SWAP1 POP JUMP JUMPDEST PUSH32 0x494E56414C49445F494E54455245535400000000000000000000000000000000 PUSH1 0x0 DUP3 ADD MSTORE POP JUMP JUMPDEST PUSH32 0x494E53554646494349454E545F42414C414E4345000000000000000000000000 PUSH1 0x0 DUP3 ADD MSTORE POP JUMP JUMPDEST PUSH32 0x494E56414C49445F414D4F554E54000000000000000000000000000000000000 PUSH1 0x0 DUP3 ADD MSTORE POP JUMP JUMPDEST PUSH2 0xC1D DUP2 PUSH2 0xB1F JUMP JUMPDEST DUP2 EQ PUSH2 0xC28 JUMPI PUSH1 0x0 DUP1 REVERT JUMPDEST POP JUMP INVALID LOG2 PUSH5 0x6970667358 0x22 SLT KECCAK256 SWAP15 CREATE2 0xC2 0xBD 0x24 DUP12 SMOD SAR PC 0xE8 SWAP11 SELFDESTRUCT SLOAD 0xE4 PUSH23 0x17F56C1D5F8F92234B5E9007D5261CF4D764736F6C6343 STOP ADDMOD SMOD STOP CALLER "
		},
		"gasEstimates": {
			"creation": {
				"codeDepositCost": "633800",
				"executionCost": "infinite",
				"totalCost": "infinite"
			},
			"external": {
				"add(uint256,uint256)": "infinite",
				"balance()": "2429",
				"deposit(uint256)": "infinite",
				"divide(uint256,uint256)": "infinite",
				"invest(uint256)": "infinite",
				"multiply(uint256,uint256)": "infinite",
				"save(uint256)": "infinite",
				"savings()": "2495",
				"share(uint256)": "infinite",
				"subtract(uint256,uint256)": "infinite",
				"withdraw(uint256)": "infinite",
				"withdrawSavings(uint256)": "infinite"
			}
		},
		"methodIdentifiers": {
			"add(uint256,uint256)": "771602f7",
			"balance()": "b69ef8a8",
			"deposit(uint256)": "b6b55f25",
			"divide(uint256,uint256)": "f88e9fbf",
			"invest(uint256)": "2afcf480",
			"multiply(uint256,uint256)": "165c4a16",
			"save(uint256)": "1b862027",
			"savings()": "c86d6ae4",
			"share(uint256)": "c3d9c4b4",
			"subtract(uint256,uint256)": "3ef5e445",
			"withdraw(uint256)": "2e1a7d4d",
			"withdrawSavings(uint256)": "de986450"
		}
	},
	"abi": [
		{
			"inputs": [
				{
					"internalType": "uint256",
					"name": "_balance",
					"type": "uint256"
				}
			],
			"stateMutability": "nonpayable",
			"type": "constructor"
		},
		{
			"inputs": [
				{
					"internalType": "uint256",
					"name": "num1",
					"type": "uint256"
				},
				{
					"internalType": "uint256",
					"name": "num2",
					"type": "uint256"
				}
			],
			"name": "add",
			"outputs": [
				{
					"internalType": "uint256",
					"name": "",
					"type": "uint256"
				}
			],
			"stateMutability": "pure",
			"type": "function"
		},
		{
			"inputs": [],
			"name": "balance",
			"outputs": [
				{
					"internalType": "uint256",
					"name": "",
					"type": "uint256"
				}
			],
			"stateMutability": "view",
			"type": "function"
		},
		{
			"inputs": [
				{
					"internalType": "uint256",
					"name": "_amount",
					"type": "uint256"
				}
			],
			"name": "deposit",
			"outputs": [],
			"stateMutability": "nonpayable",
			"type": "function"
		},
		{
			"inputs": [
				{
					"internalType": "uint256",
					"name": "num1",
					"type": "uint256"
				},
				{
					"internalType": "uint256",
					"name": "num2",
					"type": "uint256"
				}
			],
			"name": "divide",
			"outputs": [
				{
					"internalType": "uint256",
					"name": "",
					"type": "uint256"
				}
			],
			"stateMutability": "pure",
			"type": "function"
		},
		{
			"inputs": [
				{
					"internalType": "uint256",
					"name": "_pieces",
					"type": "uint256"
				}
			],
			"name": "invest",
			"outputs": [],
			"stateMutability": "nonpayable",
			"type": "function"
		},
		{
			"inputs": [
				{
					"internalType": "uint256",
					"name": "num1",
					"type": "uint256"
				},
				{
					"internalType": "uint256",
					"name": "num2",
					"type": "uint256"
				}
			],
			"name": "multiply",
			"outputs": [
				{
					"internalType": "uint256",
					"name": "",
					"type": "uint256"
				}
			],
			"stateMutability": "pure",
			"type": "function"
		},
		{
			"inputs": [
				{
					"internalType": "uint256",
					"name": "_principal",
					"type": "uint256"
				}
			],
			"name": "save",
			"outputs": [],
			"stateMutability": "nonpayable",
			"type": "function"
		},
		{
			"inputs": [],
			"name": "savings",
			"outputs": [
				{
					"internalType": "uint256",
					"name": "",
					"type": "uint256"
				}
			],
			"stateMutability": "view",
			"type": "function"
		},
		{
			"inputs": [
				{
					"internalType": "uint256",
					"name": "_pieces",
					"type": "uint256"
				}
			],
			"name": "share",
			"outputs": [],
			"stateMutability": "nonpayable",
			"type": "function"
		},
		{
			"inputs": [
				{
					"internalType": "uint256",
					"name": "num1",
					"type": "uint256"
				},
				{
					"internalType": "uint256",
					"name": "num2",
					"type": "uint256"
				}
			],
			"name": "subtract",
			"outputs": [
				{
					"internalType": "uint256",
					"name": "",
					"type": "uint256"
				}
			],
			"stateMutability": "pure",
			"type": "function"
		},
		{
			"inputs": [
				{
					"internalType": "uint256",
					"name": "_amount",
					"type": "uint256"
				}
			],
			"name": "withdraw",
			"outputs": [],
			"stateMutability": "nonpayable",
			"type": "function"
		},
		{
			"inputs": [
				{
					"internalType": "uint256",
					"name": "_amount",
					"type": "uint256"
				}
			],
			"name": "withdrawSavings",
			"outputs": [],
			"stateMutability": "nonpayable",
			"type": "function"
		}
	]
}