{
  "contractName": "Wallet",
  "abi": [
    {
      "inputs": [
        {
          "internalType": "address[]",
          "name": "_approvers",
          "type": "address[]"
        },
        {
          "internalType": "uint256",
          "name": "_quorum",
          "type": "uint256"
        }
      ],
      "stateMutability": "nonpayable",
      "type": "constructor"
    },
    {
      "inputs": [
        {
          "internalType": "address",
          "name": "",
          "type": "address"
        },
        {
          "internalType": "uint256",
          "name": "",
          "type": "uint256"
        }
      ],
      "name": "approvals",
      "outputs": [
        {
          "internalType": "bool",
          "name": "",
          "type": "bool"
        }
      ],
      "stateMutability": "view",
      "type": "function",
      "constant": true
    },
    {
      "inputs": [
        {
          "internalType": "uint256",
          "name": "",
          "type": "uint256"
        }
      ],
      "name": "approvers",
      "outputs": [
        {
          "internalType": "address",
          "name": "",
          "type": "address"
        }
      ],
      "stateMutability": "view",
      "type": "function",
      "constant": true
    },
    {
      "inputs": [],
      "name": "quorum",
      "outputs": [
        {
          "internalType": "uint256",
          "name": "",
          "type": "uint256"
        }
      ],
      "stateMutability": "view",
      "type": "function",
      "constant": true
    },
    {
      "inputs": [
        {
          "internalType": "uint256",
          "name": "",
          "type": "uint256"
        }
      ],
      "name": "transfers",
      "outputs": [
        {
          "internalType": "uint256",
          "name": "id",
          "type": "uint256"
        },
        {
          "internalType": "uint256",
          "name": "amount",
          "type": "uint256"
        },
        {
          "internalType": "address payable",
          "name": "receipient",
          "type": "address"
        },
        {
          "internalType": "uint256",
          "name": "approvals",
          "type": "uint256"
        },
        {
          "internalType": "bool",
          "name": "sent",
          "type": "bool"
        }
      ],
      "stateMutability": "view",
      "type": "function",
      "constant": true
    },
    {
      "stateMutability": "payable",
      "type": "receive",
      "payable": true
    },
    {
      "inputs": [],
      "name": "getApprovers",
      "outputs": [
        {
          "internalType": "address[]",
          "name": "",
          "type": "address[]"
        }
      ],
      "stateMutability": "view",
      "type": "function",
      "constant": true
    },
    {
      "inputs": [],
      "name": "getQuorum",
      "outputs": [
        {
          "internalType": "uint256",
          "name": "",
          "type": "uint256"
        }
      ],
      "stateMutability": "view",
      "type": "function",
      "constant": true
    },
    {
      "inputs": [
        {
          "internalType": "uint256",
          "name": "_amount",
          "type": "uint256"
        },
        {
          "internalType": "address payable",
          "name": "_reciepient",
          "type": "address"
        }
      ],
      "name": "createTransfer",
      "outputs": [],
      "stateMutability": "nonpayable",
      "type": "function"
    },
    {
      "inputs": [],
      "name": "getTransfers",
      "outputs": [
        {
          "components": [
            {
              "internalType": "uint256",
              "name": "id",
              "type": "uint256"
            },
            {
              "internalType": "uint256",
              "name": "amount",
              "type": "uint256"
            },
            {
              "internalType": "address payable",
              "name": "receipient",
              "type": "address"
            },
            {
              "internalType": "uint256",
              "name": "approvals",
              "type": "uint256"
            },
            {
              "internalType": "bool",
              "name": "sent",
              "type": "bool"
            }
          ],
          "internalType": "struct Wallet.Transfer[]",
          "name": "",
          "type": "tuple[]"
        }
      ],
      "stateMutability": "view",
      "type": "function",
      "constant": true
    },
    {
      "inputs": [
        {
          "internalType": "uint256",
          "name": "id",
          "type": "uint256"
        }
      ],
      "name": "approveTransfer",
      "outputs": [],
      "stateMutability": "nonpayable",
      "type": "function"
    }
  ],
  "bytecode": "0x60806040523480156200001157600080fd5b506040516200145a3803806200145a833981810160405281019062000037919062000336565b81600090805190602001906200004f9291906200005f565b508060018190555050506200039c565b828054828255906000526020600020908101928215620000db579160200282015b82811115620000da5782518260006101000a81548173ffffffffffffffffffffffffffffffffffffffff021916908373ffffffffffffffffffffffffffffffffffffffff1602179055509160200191906001019062000080565b5b509050620000ea9190620000ee565b5090565b5b8082111562000109576000816000905550600101620000ef565b5090565b6000604051905090565b600080fd5b600080fd5b600080fd5b6000601f19601f8301169050919050565b7f4e487b7100000000000000000000000000000000000000000000000000000000600052604160045260246000fd5b620001718262000126565b810181811067ffffffffffffffff8211171562000193576200019262000137565b5b80604052505050565b6000620001a86200010d565b9050620001b6828262000166565b919050565b600067ffffffffffffffff821115620001d957620001d862000137565b5b602082029050602081019050919050565b600080fd5b600073ffffffffffffffffffffffffffffffffffffffff82169050919050565b60006200021c82620001ef565b9050919050565b6200022e816200020f565b81146200023a57600080fd5b50565b6000815190506200024e8162000223565b92915050565b60006200026b6200026584620001bb565b6200019c565b90508083825260208201905060208402830185811115620002915762000290620001ea565b5b835b81811015620002be5780620002a988826200023d565b84526020840193505060208101905062000293565b5050509392505050565b600082601f830112620002e057620002df62000121565b5b8151620002f284826020860162000254565b91505092915050565b6000819050919050565b6200031081620002fb565b81146200031c57600080fd5b50565b600081519050620003308162000305565b92915050565b6000806040838503121562000350576200034f62000117565b5b600083015167ffffffffffffffff8111156200037157620003706200011c565b5b6200037f85828601620002c8565b925050602062000392858286016200031f565b9150509250929050565b6110ae80620003ac6000396000f3fe60806040526004361061008a5760003560e01c80639377d711116100595780639377d71114610140578063c26c12eb14610181578063cacca4a0146101ac578063d3650fb8146101d5578063ffabc6731461021257610091565b80631703a018146100965780632f65142c146100c15780634c12fa47146100ec5780636cb3e8ef1461011557610091565b3661009157005b600080fd5b3480156100a257600080fd5b506100ab61024f565b6040516100b89190610993565b60405180910390f35b3480156100cd57600080fd5b506100d6610255565b6040516100e39190610b30565b60405180910390f35b3480156100f857600080fd5b50610113600480360381019061010e9190610baf565b610343565b005b34801561012157600080fd5b5061012a61043f565b6040516101379190610cbf565b60405180910390f35b34801561014c57600080fd5b5061016760048036038101906101629190610ce1565b6104cd565b604051610178959493929190610d2c565b60405180910390f35b34801561018d57600080fd5b50610196610540565b6040516101a39190610993565b60405180910390f35b3480156101b857600080fd5b506101d360048036038101906101ce9190610ce1565b61054a565b005b3480156101e157600080fd5b506101fc60048036038101906101f79190610ce1565b61090c565b6040516102099190610d8e565b60405180910390f35b34801561021e57600080fd5b5061023960048036038101906102349190610dd5565b61094b565b6040516102469190610e15565b60405180910390f35b60015481565b60606002805480602002602001604051908101604052809291908181526020016000905b8282101561033a57838290600052602060002090600502016040518060a001604052908160008201548152602001600182015481526020016002820160009054906101000a900473ffffffffffffffffffffffffffffffffffffffff1673ffffffffffffffffffffffffffffffffffffffff1673ffffffffffffffffffffffffffffffffffffffff168152602001600382015481526020016004820160009054906101000a900460ff16151515158152505081526020019060010190610279565b50505050905090565b60026040518060a0016040528060028054905081526020018481526020018373ffffffffffffffffffffffffffffffffffffffff16815260200160008152602001600015158152509080600181540180825580915050600190039060005260206000209060050201600090919091909150600082015181600001556020820151816001015560408201518160020160006101000a81548173ffffffffffffffffffffffffffffffffffffffff021916908373ffffffffffffffffffffffffffffffffffffffff1602179055506060820151816003015560808201518160040160006101000a81548160ff02191690831515021790555050505050565b606060008054806020026020016040519081016040528092919081815260200182805480156104c357602002820191906000526020600020905b8160009054906101000a900473ffffffffffffffffffffffffffffffffffffffff1673ffffffffffffffffffffffffffffffffffffffff1681526020019060010190808311610479575b5050505050905090565b600281815481106104dd57600080fd5b90600052602060002090600502016000915090508060000154908060010154908060020160009054906101000a900473ffffffffffffffffffffffffffffffffffffffff16908060030154908060040160009054906101000a900460ff16905085565b6000600154905090565b6000805b6000805490508110156105e9573373ffffffffffffffffffffffffffffffffffffffff166000828154811061058657610585610e30565b5b9060005260206000200160009054906101000a900473ffffffffffffffffffffffffffffffffffffffff1673ffffffffffffffffffffffffffffffffffffffff1614156105d657600191506105e9565b80806105e190610e8e565b91505061054e565b506001151581151514610631576040517f08c379a000000000000000000000000000000000000000000000000000000000815260040161062890610f34565b60405180910390fd5b600015156002838154811061064957610648610e30565b5b906000526020600020906005020160040160009054906101000a900460ff161515146106aa576040517f08c379a00000000000000000000000000000000000000000000000000000000081526004016106a190610fc6565b60405180910390fd5b60001515600360003373ffffffffffffffffffffffffffffffffffffffff1673ffffffffffffffffffffffffffffffffffffffff168152602001908152602001600020600084815260200190815260200160002060009054906101000a900460ff1615151461074e576040517f08c379a000000000000000000000000000000000000000000000000000000000815260040161074590611058565b60405180910390fd5b60011515600360003373ffffffffffffffffffffffffffffffffffffffff1673ffffffffffffffffffffffffffffffffffffffff168152602001908152602001600020600084815260200190815260200160002060009054906101000a90505050600282815481106107c3576107c2610e30565b5b906000526020600020906005020160030160008154809291906107e590610e8e565b91905055506001546002838154811061080157610800610e30565b5b906000526020600020906005020160030154106109085760016002838154811061082e5761082d610e30565b5b906000526020600020906005020160040160006101000a81548160ff0219169083151502179055506002828154811061086a57610869610e30565b5b906000526020600020906005020160020160009054906101000a900473ffffffffffffffffffffffffffffffffffffffff1673ffffffffffffffffffffffffffffffffffffffff166108fc600284815481106108c9576108c8610e30565b5b9060005260206000209060050201600101549081150290604051600060405180830381858888f19350505050158015610906573d6000803e3d6000fd5b505b5050565b6000818154811061091c57600080fd5b906000526020600020016000915054906101000a900473ffffffffffffffffffffffffffffffffffffffff1681565b60036020528160005260406000206020528060005260406000206000915091509054906101000a900460ff1681565b6000819050919050565b61098d8161097a565b82525050565b60006020820190506109a86000830184610984565b92915050565b600081519050919050565b600082825260208201905092915050565b6000819050602082019050919050565b6109e38161097a565b82525050565b600073ffffffffffffffffffffffffffffffffffffffff82169050919050565b6000610a14826109e9565b9050919050565b610a2481610a09565b82525050565b60008115159050919050565b610a3f81610a2a565b82525050565b60a082016000820151610a5b60008501826109da565b506020820151610a6e60208501826109da565b506040820151610a816040850182610a1b565b506060820151610a9460608501826109da565b506080820151610aa76080850182610a36565b50505050565b6000610ab98383610a45565b60a08301905092915050565b6000602082019050919050565b6000610add826109ae565b610ae781856109b9565b9350610af2836109ca565b8060005b83811015610b23578151610b0a8882610aad565b9750610b1583610ac5565b925050600181019050610af6565b5085935050505092915050565b60006020820190508181036000830152610b4a8184610ad2565b905092915050565b600080fd5b610b608161097a565b8114610b6b57600080fd5b50565b600081359050610b7d81610b57565b92915050565b610b8c81610a09565b8114610b9757600080fd5b50565b600081359050610ba981610b83565b92915050565b60008060408385031215610bc657610bc5610b52565b5b6000610bd485828601610b6e565b9250506020610be585828601610b9a565b9150509250929050565b600081519050919050565b600082825260208201905092915050565b6000819050602082019050919050565b6000610c26826109e9565b9050919050565b610c3681610c1b565b82525050565b6000610c488383610c2d565b60208301905092915050565b6000602082019050919050565b6000610c6c82610bef565b610c768185610bfa565b9350610c8183610c0b565b8060005b83811015610cb2578151610c998882610c3c565b9750610ca483610c54565b925050600181019050610c85565b5085935050505092915050565b60006020820190508181036000830152610cd98184610c61565b905092915050565b600060208284031215610cf757610cf6610b52565b5b6000610d0584828501610b6e565b91505092915050565b610d1781610a09565b82525050565b610d2681610a2a565b82525050565b600060a082019050610d416000830188610984565b610d4e6020830187610984565b610d5b6040830186610d0e565b610d686060830185610984565b610d756080830184610d1d565b9695505050505050565b610d8881610c1b565b82525050565b6000602082019050610da36000830184610d7f565b92915050565b610db281610c1b565b8114610dbd57600080fd5b50565b600081359050610dcf81610da9565b92915050565b60008060408385031215610dec57610deb610b52565b5b6000610dfa85828601610dc0565b9250506020610e0b85828601610b6e565b9150509250929050565b6000602082019050610e2a6000830184610d1d565b92915050565b7f4e487b7100000000000000000000000000000000000000000000000000000000600052603260045260246000fd5b7f4e487b7100000000000000000000000000000000000000000000000000000000600052601160045260246000fd5b6000610e998261097a565b91507fffffffffffffffffffffffffffffffffffffffffffffffffffffffffffffffff821415610ecc57610ecb610e5f565b5b600182019050919050565b600082825260208201905092915050565b7f4f6e6c7920617070726f76657220697320616c6c6f7765640000000000000000600082015250565b6000610f1e601883610ed7565b9150610f2982610ee8565b602082019050919050565b60006020820190508181036000830152610f4d81610f11565b9050919050565b7f5472616e73616374696f6e2068617320616c7265616479206265656e2073656e60008201527f7400000000000000000000000000000000000000000000000000000000000000602082015250565b6000610fb0602183610ed7565b9150610fbb82610f54565b604082019050919050565b60006020820190508181036000830152610fdf81610fa3565b9050919050565b7f596f75206861766520616c726561647920617070726f7665642074686973207460008201527f72616e73616374696f6e00000000000000000000000000000000000000000000602082015250565b6000611042602a83610ed7565b915061104d82610fe6565b604082019050919050565b6000602082019050818103600083015261107181611035565b905091905056fea2646970667358221220fe3fa554221551235f588b82884a8d59656201459a7afb126089a89408dce80064736f6c634300080c0033",
  "immutableReferences": {},
  "source": "// SPDX-License-Identifier: UNLICENSED\npragma solidity ^0.8.12;\n\ncontract Wallet {\n    // Possible approvers\n    address[] public approvers;\n    // Maximum Number of approvers\n    uint256 public quorum;\n    // Transfer Struct\n    struct Transfer {\n        uint256 id;\n        uint256 amount;\n        address payable receipient;\n        uint256 approvals;\n        bool sent;\n    }\n    Transfer[] public transfers;\n    mapping(address => mapping(uint256 => bool)) public approvals;\n\n    constructor(address[] memory _approvers, uint256 _quorum) {\n        approvers = _approvers;\n        quorum = _quorum;\n    }\n\n    function getApprovers() external view returns (address[] memory) {\n        return approvers;\n    }\n\n    function getQuorum() external view returns (uint256) {\n        return quorum;\n    }\n\n    function createTransfer(uint256 _amount, address payable _reciepient)\n        external\n    {\n        transfers.push(\n            Transfer(transfers.length, _amount, _reciepient, 0, false)\n        );\n    }\n\n    function getTransfers() external view returns (Transfer[] memory) {\n        return transfers;\n    }\n\n    function approveTransfer(uint256 id) external onlyApprover {\n        // Can't approve an already completed transaction\n        require(\n            transfers[id].sent == false,\n            \"Transaction has already been sent\"\n        );\n\n        // An admin can't approve twice\n        require(\n            approvals[msg.sender][id] == false,\n            \"You have already approved this transaction\"\n        );\n\n        approvals[msg.sender][id] == true;\n        transfers[id].approvals++;\n        if (transfers[id].approvals >= quorum) {\n            transfers[id].sent = true;\n            payable(transfers[id].receipient).transfer(transfers[id].amount);\n        }\n    }\n\n    receive() external payable {}\n\n    modifier onlyApprover() {\n        bool allowed = false;\n        for (uint256 index = 0; index < approvers.length; index++) {\n            if (approvers[index] == msg.sender) {\n                allowed = true;\n                break;\n            }\n        }\n        require(allowed == true, \"Only approver is allowed\");\n        _;\n    }\n}\n",
  "sourcePath": "/Users/clinton/Sites/solidity/multi-sig/contracts/Wallet.sol",
  "compiler": {
    "name": "solc",
    "version": "0.8.12+commit.f00d7308.Emscripten.clang"
  },
  "schemaVersion": "3.4.4",
  "updatedAt": "2022-03-11T11:10:40.228Z",
  "networkType": "ethereum",
  "devdoc": {
    "kind": "dev",
    "methods": {},
    "version": 1
  },
  "userdoc": {
    "kind": "user",
    "methods": {},
    "version": 1
  }
}